:02000000472D8A
:10000800FF00030E8301D3000A08D4008A01700898
:10001800A5007108A4007208A3007C08A2007D084E
:10002800A1000408A6000B1D3628F8308100B00A8C
:100038000319B10A3108273A031D24281030300665
:10004800031D3428B001B101071686010130E30011
:10005800AC206300870185010830E300AC20332819
:10006800FB308B050C1C3D28C30A0319C40AFE305B
:100078008C058B1C822887160230FB000430FC009C
:10008800BA30FD00FD0B4628FC0B4628FB0B462822
:1000980000000608053A031956280608043A031909
:1000A8005628652804308700E1236430AE0703181A
:1000B800AF0A4B08AE074C080318013EAF07EC2403
:1000C800B1230608023A03196E280608033A0319F1
:1000D8006E287D2802308500E1236430AE070318BE
:1000E800AF0A4B08AE074C080318013EAF07EC24D3
:1000F800B123C92387018501FD308B052508F00050
:100108002408F1002308F2002208FC002108FD0061
:100118002608840054088A00530E8300FF0E7F0EC1
:020128000900CC
:0E012A00213083120313FD00FD0B99280800FD
:06013800000000000800B9
:10013E000F3083120313FC004730FD00FD0BA52882
:0A014E00FC0BA528000000000800CB
:1001580083120313E31BB2288811B3288815631B85
:10016800B7280811B8280815E31ABC288810BD2834
:100178008814631AC1280810C22808144218C6280F
:100188000816C728081288169C208812E319CE285A
:100198008811CF2888156319D3280811D428081581
:1001A800E318D8288810D92888146318DD2808107F
:1001B800DE2808144218E2280816E32808128816D0
:1001C8009C208812421CEA289F20EB2895200800D2
:1001D80083120313F801F9011030FC00710DF80DBA
:1001E800F90D7408F8027508031C750FF902031855
:1001F80004297408F80775080318750FF907031020
:0A020800F00DF10DFC0BF2280800C8
:1002120083120313E10105306102031817296108F3
:100222006007840020308000E10A0C296108600721
:1002320084008001E10361086007E2000A30F400F3
:10024200F5015E08F0005F08F100EC207808F0008C
:100252007908F1003030F0076208840070088000ED
:100262000A30F400F5015E08F0005F08F100EC20AE
:100272007008DE007108DF0000307106031D43299B
:1002820000307006031D46294829E1031C29080095
:100292008312031342105E08E300AC2042140800EC
:1002A20083120313FB01FA01F901F801A001730D96
:1002B200F80D7408F8027508031C750FF902760828
:1002C200031C760FFA027708031C770FFB0200016A
:1002D200031C0130A002F30D0730FC00730DF80D72
:1002E200F90DFA0DFB0DA00D7408731C8A29F80292
:1002F2007508031C750FF9027608031C760FFA02C3
:100302007708031C770FFB020001031C0130A002D7
:100312009B29F80775080318750FF9077608031863
:10032200760FFA0777080318770FFB070001031807
:100332000130A007F30DFC0B6F29720DF80DF90DBA
:10034200FA0DFB0DA00D7408731CB929F80275088B
:10035200031C750FF9027608031C760FFA02770860
:10036200031C770FFB020001031C0130A002CA2903
:10037200F80775080318750FF90776080318760F42
:10038200FA0777080318770FFB07000103180130FB
:10039200A007F20D0730FC00720DF80DF90DFA0DF1
:1003A200FB0DA00D7408721CE829F8027508031CE5
:1003B200750FF9027608031C760FFA027708031C00
:1003C200770FFB020001031C0130A002F929F80794
:1003D20075080318750FF90776080318760FFA07E0
:1003E20077080318770FFB07000103180130A007F5
:1003F200F20DFC0BCD29710DF80DF90DFA0DFB0D67
:10040200A00D7408721C172AF8027508031C750FD8
:10041200F9027608031C760FFA027708031C770F9D
:10042200FB020001031C0130A002282AF80775080C
:100432000318750FF90776080318760FFA0777087D
:100442000318770FFB07000103180130A007F10D15
:100452000730FC00710DF80DF90DFA0DFB0DA00D22
:100462007408711C462AF8027508031C750FF902FC
:100472007608031C760FFA027708031C770FFB023B
:100482000001031C0130A002572AF807750803185F
:10049200750FF90776080318760FFA07770803181D
:1004A200770FFB07000103180130A007F10DFC0BC9
:1004B2002B2A700DF80DF90DFA0DFB0DA00D740825
:1004C200711C752AF8027508031C750FF90276086B
:1004D200031C760FFA027708031C770FFB02000158
:1004E200031C0130A002862AF80775080318750F4D
:1004F200F90776080318760FFA0777080318770FBB
:10050200FB07000103180130A007F00D0730FC00C3
:10051200700DF80DF90DFA0DFB0DA00D7408701C8D
:10052200A42AF8027508031C750FF9027608031C49
:10053200760FFA027708031C770FFB020001031CF7
:100542000130A002B52AF80775080318750FF907DC
:1005520076080318760FFA0777080318770FFB0758
:10056200000103180130A007F00DFC0B892A701856
:10057200C82A7408F80775080318750FF907760872
:100582000318760FFA0777080318770FFB0708009E
:0E0592008312031346088A0045088200080001
:1005A00083120313DA01DB015508DC005608DD0075
:1005B00080305606F00080307002031DE12A0030C2
:1005C00055020318EF2A0130DA000030DB0055082D
:1005D000003CDC005608031C013EDD01DD025C0826
:1005E000DE005D08DF005708E00009210630D80072
:1005F0000030D9005908003C031D002B5808003C6E
:1006000003181B2B58085707F20001305802F0005E
:100610000030031C013E5902F100700857078400A6
:100620000008F00072088400700880000130D802D1
:10063000031CD903FA2A57088400203080005A0886
:100640005B040319392BD801D901580857078400D6
:100650000008203A031D302BD80A0319D90A252B8C
:100660000130D802031CD9035808570784002D30E5
:0406700080000800FE
:10067400831203132230FC00F801F901FA01FB0193
:10068400FC030319702B0310FB0CFA0CF90CF80C87
:10069400F30CF20CF10CF00C031C422BFC030319B9
:1006A400622B7408F80775080318750FF9077608A4
:1006B4000318760FFA0777080318770FFB07462B02
:1006C4007408F80775080318750FF90776080318F6
:0E06D400760FFA0777080318770FFB07080068
:1006E200832B803083120313D500962BC030D500A4
:1006F200962B9430D500962BD430D500962B803093
:10070200D500962B831203135508013A0319722B55
:100712005508023A0319772B5508033A03197A2B25
:100722005508043A03197D2B802B5603F000550817
:10073200F0077008D5007008E300AC204210D80121
:1007420058085707840000080319AF2B58085707A9
:1007520084000008DE004921D80AA12B42140800B7
:1007620083120313F301323073020318C82BF10111
:10077200F20103307202031DC02BE830710203182C
:10078200C62BF10A0319F20ABA2BF30AB42B08009A
:1007920083120313F301323073020318E02BF101C9
:1007A200F20101307202031DD82BF43071020318DA
:1007B200DE2BF10A0319F20AD22BF30ACC2B080022
:1007C20083120313C301C4018F018E010430890017
:1007D2000630FD00FD0BEB2B000089018918F22B7E
:1007E200EF2B19309000891CF72BF42B1830900056
:1007F2000F08F100F0010E087004F5007108F60010
:100802000030F6044408F3004308F200F001F1015D
:100812007508C7007608C800C901CA017008C70771
:1008220071080318710FC80772080318720FC907FD
:1008320073080318730FCA070E08643C0318212CAF
:100842004708CF004808D0004908D1004A08D20022
:100852004708F0004808F1004908F2004A08F3008E
:100862002230F400F501F601F7013A23E830F400F2
:100872000330F500F601F70151217008CB00710831
:10088200CC007208CD007308CE00CE0CCD0CCC0C7F
:06089200CB0CCE130800A0
:1008980083120313F101F20100307202031D562C7A
:1008A8003230710203187E2C87170230FC008D301D
:1008B800FD00FD0B5D2CFC0B5D2C000000007F3063
:1008C800870507170230FC008D30FD00FD0B6A2CF0
:1008D800FC0B6A2C00000000BF3087053F30FC008D
:1008E8005530FD00FD0B762CFC0B762CF10A031914
:0608F800F20A502C08007A
:1008FE008316031388120812081088100811881125
:10090E0083128812081288110811881008109F206F
:10091E009F209F208814081488169C2088129F20E0
:10092E0088169C2088129F2088169C2088129F2053
:10093E00081088169C2088129F2088169C208812EA
:10094E008810881588169C2088129F2088110814FC
:10095E0088169C208812081088169C2088129F20CA
:10096E0088169C208812081488169C2088129F20B6
:10097E00081088169C2088128815081588140814EB
:0C098E0088169C2088129F20421408004C
:10099A0083120313C301C401C701C801C901CA01F3
:1009AA00CF01D001D101D201CB01CC01CD01CE01C1
:1009BA008F018E0102308316890083128901C030AB
:0E09CA008B0483160C14183083129000080062
:1009D800013083120313E300AC200C30E300AC2099
:1009E8000130D5000130D6002730D70071232E08FA
:1009F800D5002F08D6003230D700D0220130D500DC
:0C0A08000730D6003230D7007123080000
:100A1400C9228A110A128000840AC50A0319C60A67
:080A2400F003031D0A2D080078
:100A2C0083120313F101F20100307202031D202D19
:100A3C00323071020318462D87170530FC00263022
:100A4C00FD00FD0B272DFC0B272D00007F308705AB
:100A5C0007170530FC002630FD00FD0B332DFC0B79
:100A6C00332D0000BF3087053F30FC005530FD00B2
:100A7C00FD0B3E2DFC0B3E2DF10A0319F20A1A2D2B
:020A8C00080060
:100A8E00733083120313A7006330A8006F30A900E0
:100A9E007230AA006530AB003D30AC00AD01AE0146
:100AAE00AF01B001B101B201B301B401B501B6019C
:100ABE00B701B801B901BA01BB01BC01BD01BE014C
:100ACE00BF01C001C1018316870107308600831262
:100ADE0086018701063083169F008501F830831248
:100AEE0081007F249701873083168100F0308B00C0
:0A0AFE00CD244C241625802D832DF5
:02400E004A2F37
:00000001FF
